:10000000C0230120393300008F8700000D3300002A
:100010000D3300000D3300000D3300000D330000E0
:100020000000000000000000000000004D2E000055
:100030000D33000000000000B92D00000D3300005A
:10004000F12E0000F12E0000F12E0000F12E000034
:10005000F12E0000F12E0000F12E0000F12E000024
:10006000F12E0000F12E0000F12E0000F12E000014
:10007000F12E0000F12E0000F12E0000F12E000004
:10008000F12E0000F12E0000F12E0000F12E0000F4
:10009000F12E0000F12E0000F12E0000F12E0000E4
:1000A000F12E0000F12E0000F12E0000F12E0000D4
:1000B000F12E0000F12E0000F12E0000F12E0000C4
:1000C000F12E0000F12E0000F12E0000F12E0000B4
:1000D000F12E0000F12E0000F12E0000F12E0000A4
:1000E000F12E0000F12E0000F12E0000F12E000094
:1000F000F12E0000F12E0000F12E0000F12E000084
:10010000F12E0000F12E0000F12E0000F12E000073
:10011000F12E0000F12E0000F12E0000F12E000063
:10012000F12E0000F12E0000F12E0000F12E000053
:10013000F12E0000F12E0000F12E0000F12E000043
:04014000F12E00009C
:1001440053B94AB9002908BF00281CBF4FF0FF313A
:100154004FF0FF3000F00CB8ADF1080C6DE904CE9F
:1001640000F008F8DDF804E0DDE9022304B070478C
:10017400704700BF2DE9F04786468C460846089E26
:10018400154674461946002B40F0C1808542B2FAE8
:1001940082F245D94AB1C2F1200300FA02FC95402B
:1001A40094402EFA03F343EA0C0C4FEA154EA8B21E
:1001B400230CBCFBFEF80EFB18CC08FB00F943EA49
:1001C4000C43994528D9EB1808F1FF3704D2994517
:1001D40002D9A8F102072B44A3EB0903A4B2B3FB91
:1001E400FEFC0EFB1C330CFB00F044EA0344A0426B
:1001F40014D92C190CF1FF3304D2A04202D9ACF16A
:1002040002032C44241A43EA07401EB1D4400023BD
:1002140034607360BDE8F0874746DDE76346F1E785
:1002240092BB431B01214FEA154EAFB2200CB3FB26
:10023400FEFC0EFB1C330CFB07F840EA0343984515
:1002440061D9EB180CF1FF3004D2984502D9ACF116
:1002540002002B44A3EB0803A4B2B3FBFEFC0EFB89
:100264001C330CFB07F744EA0344A7424DD92C196D
:100274000CF1FF3304D2A74202D9ACF102032C449F
:10028400E41B43EA0040C0E7C2F1200395409440D8
:1002940020FA03F12EFA03F34FEA154E9040AFB261
:1002A4000343B1FBFEFC0EFB1C10190C0CFB07F8FE
:1002B40041EA0041884522D969180CF1FF3004D283
:1002C400884502D9ACF102002944A1EB08019BB294
:1002D400B1FBFEFC0EFB1C110CFB07F743EA0143C8
:1002E4009F420ED9EB180CF1FF3104D29F4202D980
:1002F400ACF102012B44DB1B41EA004193E7604669
:10030400E3E76146F7E76046A4E76346B8E783425C
:1003140006D916B9002108467CE7C6E900E0F9E7EA
:10032400B3FA83F78FB9834201D3724508D8BEEB81
:10033400020460EB030301209C461EB9002169E717
:100344003846FAE7C6E9004CF8E7C7F1200CBB4091
:100354000EFA07F522FA0CF42EFA0CF1BA401C43FB
:1003640020FA0CF3B8404FEA144901431FFA84FE03
:10037400B3FBF9F809FB18300B0C08FB0EFA43EA3F
:1003840000439A4540D9E31808F1FF3004D29A4556
:1003940002D9A8F102002344A3EB0A0389B2B3FBF8
:1003A400F9F809FB183308FB0EFE41EA03418E45B8
:1003B4002CD9611808F1FF3304D28E4502D9A8F173
:1003C4000203214443EA0040A1EB0E01A0FB029882
:1003D4004145CE46434602D306D14D4504D20138A9
:1003E400B9EB020E68EB0403002EA7D0B5EB0E02A6
:1003F40061EB030101FA0CFC22FA07F3F9404CEA21
:100404000303C6E9003199E74046C5E74346D9E707
:1004140008B50B4808F0C4FE28B9BDE808404521DA
:10042400084807F077BE4FF40031074807F0B1F9E8
:10043400BDE8084000220321014807F09AB900BF33
:10044400389500000C9C0000409800002DE9FF4105
:10045400594B5A4A4921C3F800265948C3F804267F
:10046400C3F80826C3F80C26C3F81026C3F81426CC
:10047400C3F81826C3F81C2607F04CFEFFF7C8FF84
:1004840007F0A7F94F4808F08BFE00284ED04FF430
:1004940080314D4807F07DF90C214A4807F055F9A1
:1004A400002843D0002140F2676005F06BFB4FF455
:1004B4007A7708F0D4FF3D46A0FB070307FB01331E
:1004C400C40B404E44EA43440C21304607F03DF946
:1004D400804608F0C4FFA0FB053207FB0122DB0BBA
:1004E40043EA42431B1BB3F5E17F07D2B8F1000F87
:1004F4001CD00021212005F045FBE5E7B8F1000FF1
:1005040014D04FF05023D3F800340BB1DB070DD5D2
:10051400012203212B4807F02CF949212B4807F02D
:10052400F9FD01F05DFE2A4802F0C6F901A800F0C9
:1005340087FC284B1B68834204D04521264807F0DA
:10054400E9FDFEE7039A4921244807F0E3FD492128
:10055400234807F0DFFD4FF48031002003F066FFED
:10056400044620B145211F4807F0D4FDFEE7694643
:100574009DF8080000F03AF8009B039D1D44019B80
:100584001E8900F065FFAF1900F046FF02F014FF6A
:1005940084F30B8884F30A88AB5983F3088884F3C3
:1005A4001488BFF36F8FBFF36F8F7B689847452123
:1005B4000D4807F0AFFDFEE7008001503546526E4E
:1005C400439C000038950000389800005C9C0000B3
:1005D4004898000020C80020809C0000A39C0000D4
:1005E400D29C0000F79C00002A9D0000024608B53A
:1005F40038B105480023452107F08CFD6FF0150044
:1006040008BD0860FCE700BF4D9D00001FB50C4607
:10061400014601AA044808F087FA18B9019B23602F
:10062400029B636004B010BD689500002DE9F04F93
:100634001E46834BDBB01446DDE96657D3F80080D1
:10064400DDF8A0B100F0B2FE01227E4B3AA8C3F857
:10065400002505F0B3FF35B1002F04DD3A462946E5
:100664003AA807F009FC4FF00009638927891F4461
:10067400E3681F444F4525D80DA93AA806F010F8A1
:100684000022704BC3F80025C3F80025BBF1000F0E
:1006940004D0202258460DA908F0B0F800233246B1
:1006A400009321464FF6FF7307A807F093F8054619
:1006B400D0B930460C9C00F083F984421FD94FF026
:1006C400FF3511E0659BA7EB090A9A4528BF9A46B6
:1006D400494653463046649A07F02AFD054638B128
:1006E4000022584BC3F8002528465BB0BDE8F08FC4
:1006F400524664993AA807F0BFFBD144BAE74FF0D9
:10070400FF37DFF84CB1DFF83C910DF1160305AA71
:1007140006A907A807F0ACF8041EC0F28F8040F0C9
:100724008280BDF816A0BAF1100F18D1BDF814508C
:10073400202DC4D12B46304606993AAA07F0F8FC7E
:10074400044600287AD12A463AA90DA807F008F9E8
:1007540005463D4B1B688342C6D10125D5E7BAF156
:10076400010F3ED1BDF81430202BA8D8304606998D
:100774003AAA07F0DDFC044600285FD19DF8143046
:10078400202B029309D8DBF80030304F0393039BEE
:100794009C4205DB0023C9F800354FF0FF341CE010
:1007A40000F004FEC9F800A51DA805F007FF7A684B
:1007B4001DA8126857F8081B07F05EFB15A91DA8B1
:1007C40005F06EFF0022C9F80025029A3AA915A87F
:1007D40007F0EDFF18B9C9F80005274695E701347D
:1007E400D5E7BAF1220F90D17B1C8ED0DBF8003014
:1007F400BB4215DDBDF81430802B3FF660AF3046A8
:1008040006993AAA07F094FC0446B8B9FFB220212D
:10081400BDF8143000973AAA0DA800F01BF88046E2
:100824004FF0FF3771E745B1074B1B6843451CBFC9
:10083400034BD3F80080454656E70124254653E789
:10084400E8C400200000845020C800205498000010
:10085400509800002DE9F04196B017461D469DF8CA
:100864007020354B0E4653F8321003EBC2035B681D
:1008740001918046186802AA0144302301A807F0B8
:1008840089FA20B14FF0FF3016B0BDE8F081DDE900
:1008940001431C44214606AB03AA01A807F0A2FAAF
:1008A4000028EFD1049A072AECD12449059807F0CF
:1008B4007EFF0028E6D1079A082AE3D12049089848
:1008C40007F075FF0028DDD1214602AA01A807F030
:1008D40075FA0028D6D1DDE9013213449C42D1D106
:1008E400412ACFD13D443023294603AA02A80297C6
:1008F40007F050FA0028C5D1DDE9023213449D42C5
:10090400C0D32A4602A906A806F0FEFF0028B9D1E2
:100914002A4602A90EA806F0F7FF0028B2D1202E1D
:10092400B0D101990B78042BACD13346404606AACA
:10093400013100F053FDA7E7549800007C9D0000AE
:10094400739D00002DE9F041032386B00D466F46E8
:100954000026DFF86880ADF8003017F8010B01A914
:1009640001F052FA0446A0B901981023816802AA42
:10097400103907F0DDFB0446019807F0D8FB44B9B1
:100984001022414602A807F012FF40B12EB14FF0E9
:10099400FF34204606B0BDE8F0810126DDE701986A
:1009A40008F08CFA0423A0F108012A46019807F004
:1009B400BFFB0446019807F0BAFBEAE7FC9B000082
:1009C40007B506F0E1FF6946FFF720FE38B1054898
:1009D400452107F09FFB002003B05DF804FB00985D
:1009E400FAE700BF849D00002DE9F041354B88B043
:1009F400064600200C461D6806F0E0FE06A9C0B2BB
:100A040001F002FA002857D1214606F0D7FE2C2522
:100A140007A9C0B205FB046501F0F6F9002833D03C
:100A24002C27674306EB0708D8F81010069B11F033
:100A3400100138D14FF480720192234A0846009283
:100A4400CDE903112A460291FFF7F0FD05461F4B3D
:100A5400F25906989A420CD1D8F80C20B8F808300C
:100A64009B1806D28268934203D2194B1B68AB428F
:100A74001FD02CB38268002107F084FB154A45215E
:100A8400154807F047FB13E0079807F098FB074663
:100A9400079807F04CFB6B1EEA1C13F8011FB942C0
:100AA400BED19342F9D11CB13046069907F051F8F2
:100AB4000125069807F03BFB284608B0BDE8F08105
:100AC400064ADCE7E8C40020D6E800203DB8F396E7
:100AD40020C80020C79D0000D19D0000BF9D0000DC
:100AE40073B50D46002104462846CDE9001106F0F1
:100AF400EFFF30B3164E2368B34203D1204601AA58
:100B040006F07AFFE36AB34204D16A460121204623
:100B140006F072FFDDE90032934288BF0193019B26
:100B2400AB60019A2946204600F036FB094B1A684F
:100B3400002A03DD5721084807F0ECFA002002B030
:100B440070BD05F10801FFF7FDFEAB680193E8E70E
:100B54003DB8F39684DC0020F99D00002DE9F84FA0
:100B6400884691469A460026DFF870B0194C1A4D13
:100B74000B9B9E4201D300200FE00B9B40469F1B22
:100B8400B7F5806F28BF4FF48067144A3B4606EBE5
:100B94000A0107F0CDFA10B10120BDE8F88F0A99D7
:100BA4003B465A464846711807F0D7FA0028F3D155
:100BB400C4F800563E44C4F80456C4F80856C4F8B1
:100BC4000C56C4F81056C4F81456C4F81856C4F891
:100BD4001C56CDE7008001503546526E24D80020C3
:100BE4002DE9FF410E4600218E4B044643628E4B95
:100BF4000365084606F0E2FD04F12001C0B201F0ED
:100C040003F90121002006F0D9FD04F14C01C0B222
:100C140001F0FAF80546204606F02FFF074668B9AA
:100C240000222046114606F0D1FE074608B30022F2
:100C340057217E4807F06EFA012390E04FF480724A
:100C440057217B4807F066FA01239F4284F8583005
:100C5400E6D194F85830042B8DF8073000F28280E6
:100C6400012B00F2858000F09C80FF2384F858302B
:100C740097E0204600F0A6F90028DDD0684606F08B
:100C84001EFF6946204606F0B9FF18B13A465721BF
:100C94006848CFE7684606F01BFF80F001016A460A
:100CA4002046C9B206F092FE02460028BFD168462B
:100CB40006F00EFF074660BB69462046FFF710FFAB
:100CC4009DF8073084F85830033B012B06D838468A
:100CD40006F0E3FF10B1FF2384F858309DF8073085
:100CE400023B022B0BD8002006F0C5FF38B1FF23CE
:100CF40084F858304521504807F00CFAFEE794F880
:100D04005830FF2BF6D06A460021204606F05EFEDE
:100D140092E79DF80780B8F1010F15D1104603F052
:100D240023FC831E022B07460BD841462046FFF7BF
:100D34005BFE424B1B68984203D0012814BF052771
:100D4400012784F8587084E701212046FFF74CFE00
:100D54003A4B1B68984214BF05239DF8073084F86A
:100D6400583076E7052B80D1002006F096FF13E07B
:100D740069462046FFF7B4FE94F858300546DA1E5B
:100D8400012A0CD8002006F088FF054600287FF4CD
:100D94006CAF002006F06FFF054610B165E7022B2B
:100DA400F7D094F85830FF2B04D14521224807F09E
:100DB400B1F9FEE7012B10D06A460021204606F067
:100DC40005FE054648B1E06C07F0B1F9206A07F06A
:100DD400AEF9284604B0BDE8F08100212046FFF7B3
:100DE40003FE0746DFF85480D8F8003098420FD14C
:100DF40010220021684607F00CFD206A06F0E7FC8B
:100E04003071236A5B683460D8F80050B360DAE765
:100E1400E06C07F08CF9206A07F089F9002D08BF0F
:100E24003D46D6E724D0002024C800206A9E000056
:100E3400289E0000969E0000C09E000020C800204E
:100E440038B5064D044660220021284607F0E1FC2F
:100E540021462846FFF7C4FE38BD00BF24DC00202D
:100E640073B516461D4643B15B79012B07D121B9F1
:100E7400204B2A681B689A4217D8002418E0022BDA
:100E8400FBD12B68012B07D91A4A12689342F4D874
:100E9400B1FA81F14909F0E7EFD131B10129ECD17F
:100EA4002979023918BF0121E7E70021436A5C6808
:100EB400002006F083FC01A9C0B200F0A5FF30B108
:100EC4000124019807F033F9204602B070BD214691
:100ED40020233246019807F02BF904460028EFD16D
:100EE400002DEED03468044BE41A18BF4FF0FF34E1
:100EF400E7E700BFECC400203DB8F3962DE9F04FBE
:100F040007460C4685B001460020164606F02FFD24
:100F1400051E51DB3846E46D06F036FD5FFA84F9B0
:100F24004FF0000A4FF0010B4FF0FF346B1E09FB2A
:100F340003089DB9BAF1010F03DD4521204807F0EC
:100F4400E9F8631C06D0FF2C2ADC40F201130134BB
:100F54003460B380284605B0BDE8F08F6B1E009363
:100F64004146012338460DF10F0207F0E1F8031E54
:100F7400019323DB012238460DF10F0107F0B2FF84
:100F8400019B40B15B4501D00AF1010A9B46009DDB
:100F9400A8EB0908CDE7B4F1FF3F08BF2C46F5E7FD
:100FA4000223A4F580747371631004F00104013307
:100FB400013433603471CDE70725CBE70125C9E758
:100FC400CC9E000038B5816A426D914208D0531C12
:100FD4008B4205D05721144807F09CF8002038BDF7
:100FE400B1F5807F1CD957211048F5E7446A056D97
:100FF40004EBC30405EBC30564686D68AC4202D01E
:1010040057210B48E8E701339A42EFD1914205D9C1
:10101400436A03EBC2035B68A342F1D10120DEE71C
:1010240000231C46F0E700BFEF9E0000279F00004E
:10103400569F000000B589B0032004A907F0C4FF3F
:101044009DF81020012A41D0254B2649032A08BFC8
:101054000B469DF81320492102929DF81220224844
:1010640001929DF811200092204A07F053F80920BC
:1010740006A907F0A9FF9DF81820012A28D0184BCB
:101084001849032A08BF0B469DF81B2049210292E8
:101094009DF81A20144801929DF819200092144AD0
:1010A40007F038F89DF81030012B13D19DF8123059
:1010B400032B0FD19DF81830012B0BD00D4849217B
:1010C40007F028F8022009B05DF804FB0A4BC0E7DA
:1010D400094BD9E70948492107F01CF80020F2E739
:1010E400829F00008B9F00009F9F0000919F000043
:1010F400E09F0000F09F0000869F00000FA000000A
:1011040070B54B6814461E4A03F0FF23934206460B
:101114000D4686B02FD10B68012B2CD1204604A993
:1011240003F0CCF99DF81020012A26D0154B16495E
:10113400032A08BF0B469DF81320492102929DF80B
:101144001220124801929DF811200092104A06F0D4
:10115400E1FF9DF81030032B0DD12146304606F0F7
:10116400F8FC204607F023FF2046A96806F01FFC80
:10117400204603F083F906B070BD064BDBE700BFE1
:1011840000010004829F00008B9F00009F9F0000CD
:10119400E09F0000869F00002DE9F04F05460C46B5
:1011A4007D48492189B0174606F0B4FF6B6A0122D5
:1011B4005E6800233344BB42114602F10102F9D3B5
:1011C400764F2046396006F083FC08B3E86D06F0DC
:1011D400C9FBAB6A03F1FF3800233344834202D2D4
:1011E40008F1FF38F9E73B68434511D357216C48B0
:1011F40006F090FF3A6808FB06F3572102FB0662EB
:10120400684806F087FF0123E37109B0BDE8F08F59
:1012140006A9032000F0F8FD07A9092000F0F4FD59
:1012240021462846079AFFF76BFF6379012B0BD100
:10123400D7F80080DFF870B13B68DDF81890B8F19A
:10124400000F11D10123236002234FF001086371C1
:101254003B68DDF818A0984549D9504606F067FF69
:10126400079806F064FFD0E7226801339B1A98457B
:101274003AD86B6A012A196853F8380003EBC8039B
:1012840053F8083CA0EB010AA3EB0103049311D12A
:10129400079B0393E368022B08D04946284606F0CF
:1012A40058FC22464946284606F089FC28460399FC
:1012B40006F04FFC32465146484606F048FC049B73
:1012C4004A4649462846CDE900A6FFF747FC214691
:1012D400284606F00AFC23680133236020B1DBF8BA
:1012E40000300133CBF8003008F1FF38A4E723685D
:1012F40098454ED36A6A4FEAC80352F83810083B3F
:1013040004911168DDF81CB00391D1582A6DD058AE
:101314001368A0EB03092379012B38D1039B3246D0
:10132400C91A5046059106F012FC05994B465246DF
:101334000091284659460196FFF710FC214628469D
:1013440006F0D3FB0223237118B1174A1368013343
:10135400136032464946584606F0F9FBDDE903239B
:1013640051469B1A28465A46CDE90096FFF7F6FBEC
:101374002146284606F0B9FB236801332360012384
:10138400237130B1084A13680133136001E0022B62
:10139400DFD008F101085BE726A00000ECC40020C0
:1013A4004FA000007EA0000084DC002070B5094D31
:1013B4002B780BB1002070BD0126074CC4F80065E2
:1013C40005F09EF918B92E70C4F80005F2E74FF045
:1013D400FF30F0E7D6E90020000084502DE9F04109
:1013E400ACB01F4606460C461546FFF7DFFF012347
:1013F400DFF820802A46C8F8003521463346009796
:1014040003A808F032F80023C8F800352CB0BDE872
:10141400F08100BF00008450BFF36F8F72B60023C9
:101424004FF0FF30094A03F120010133102B42F839
:101434002100F8D100234FF0FF30044A03F160018A
:101444000133102B42F82100F8D1704700E100E08D
:1014540038B501224FF0FF3400251A4B29465A6053
:10146400C3F84843C3F8084303F580535A60C3F8EC
:101474004843C3F80843A3F55043C3F800558022FA
:10148400C3F80843104807F0C4F9802229460F48DE
:1014940007F0BFF90E4B8022C3F800552946C3F864
:1014A40008430C4807F0B5F9802229460A4807F09A
:1014B400B0F90A4BC3F808454FF05023C3F808436A
:1014C40038BD00BF00400150808000508081005032
:1014D40000900050809000508091005000700150A6
:1014E4002DE9F043079D15B91560002012E003248F
:1014F400B5FBF4F404EB4407BD4218BF0134B4F166
:10150400804F09D2A40001348C4200D838B96FF05E
:101514000B001460BDE8F0834FF0FF34F7E7044696
:101524000021DFF8B4E0B94203F1030C04F104062E
:101534002BD3A942274623D201F1010CAC451F78D5
:1015440028BF002324494FEAA70E38BF5B7811F85F
:101554000EE0AC4584F800E001EB131E2EBF3D23E2
:101564009B0003F03C034FEA071738BFCB5C07F03E
:1015740030071EF80770A3703D2367703746E37089
:101584000023381A10603B70AFE71CF8034C1CF8BA
:10159400023C4FEAA4091EF8099024011CF8018CAE
:1015A40004F0300406F8049C0EEB131919F80440F7
:1015B4009B0006F8034C03F03C030EEB9814E35C29
:1015C40008F03F0806F8023C1EF80830344606F8D6
:1015D400013C03316346A6E78AA100002DE9F043EC
:1015E40000273C463D46DDF81CE0DFF828817545C0
:1015F4001FD3E4BB00201460BDE8F08301367645B8
:1016040033D013F806C0BCF1200FF7D0AEEB0609B7
:10161400B9F1010FA6EB05050DD0BCF10D0F0AD1F0
:1016240003EB060999F80190B9F10A0F6ED1751C04
:10163400DDE72E46E3E7BCF10A0FF8D02DB9BCF183
:101644003D0F05D10137022F0DD96FF01500D3E7F7
:101654001CF0800FF9D118F80C507F2DF5D03F2DD8
:1016640001D8002FF1D10134E1E73546C1E74FF04D
:10167400060C04F00706E4080CFB06F60CFB04F465
:101684000736E41B04EBD60470B18C420CD8002757
:10169400014603263C46DFF87CE0DFF87C801D44ED
:1016A4009D4205D10C1AA5E76FF00B001460A3E767
:1016B40013F8019BA9F10A0C5FFA8CFCBCF1160F1C
:1016C40004D848FA0CFC1CF0010FE9D01EF809C03C
:1016D4000134BCF1400F08BF013E0CF03F0C042C58
:1016E4004CEA8717DCD17EB13C0C012E0C7002D180
:1016F40001310024D4E7022E4FEA17244C7016BFA0
:101704008F7002310331F4E73446C9E7002DA2D0CB
:101714009BE700BF0AA10000F6FFBFFF014B1B6857
:10172400184700BFF0C4002007B50B46002102464D
:101734000091034800F014F903B05DF804FB00BF06
:10174400211700002DE9F047058B04462807904631
:1017540011D4022905F0070540F0CD80204606F09B
:10176400D3FB78B10138218B042811D8DFE800F0CD
:10177400C3106D85950001290CBF45F0100545F097
:101784002005258388F31188BFF36F8FBDE8F087A8
:1017940001F0070AAA4500F0A6800027B9463E4694
:1017A400A368002B00F0BD8041F00801218388F379
:1017B4001188BFF36F8FA168002900F0BB800D680A
:1017C400002900F0B780334652462046D1F8048001
:1017D400C047002D76D02B6829461D46F0E701F05E
:1017E40007035A1F012A1BD8002221F00701062BE8
:1017F400276889B2C4E9002209D13B4603E0628B21
:10180400013262831B68002BF9D141F002012046AA
:10181400218306F079FB00287BD041F0200177E09A
:10182400042B0AD121F0070189B22046218306F056
:101834006BFB10B141F020012183218B01F0070AD9
:10184400AA4550D00027B946AAE7236921F0070129
:1018540041F00601062DD3F8009021832DD1B9F172
:10186400000F40D041F00801218388F31188BFF3B1
:101874006F8F20463949C84729E021F007012369C1
:1018840041F0040189B2042DD3F804902183E6D0F9
:1018940000274FF0040A3E4682E721F0070123693E
:1018A40041F0050189B2052DD3F808902183D6D0E3
:1018B40000274FF0050A3E4672E700274FF0060A5C
:1018C4003E466DE72B4687E7B9F1000FD1D14FF0C3
:1018D4002003EFF3118883F31288BFF36F8F238BF8
:1018E40023F008032383258BEA062ED525F0100365
:1018F400238305F007056669218B002EBFF66FAFC1
:1019040000232768C4E9003321F0070141F00101F5
:101914002183218B4FF0000901F0070AAA457FF4C7
:101924003FAF002F9BD041F00801218388F3118839
:10193400BFF36F8F002FC7D03D68394633465246F8
:10194400204606F00DFB2F46F4E7AB067FF51AAFF1
:1019540025F02003238305F00705FFE6917F0000AF
:101964002DE9F04F82464FF000098DB01D46531EFD
:1019740001910393039B58785C1C252819D10020FE
:101984004FF0FF381E464446034602360290317833
:101994000396392955D81F2914D8002900F0EE815F
:1019A40001992520D04701993078D04709F10209DF
:1019B400E0E7002800F0E2810199D04709F101092C
:1019C4000394D7E7A1F12002192AE9D801A757F80F
:1019D40022F000BF411A0000A5190000A51900005B
:1019E400411A0000A5190000C11A0000A519000041
:1019F400A5190000A5190000A51900000D1B000081
:101A0400411A0000A5190000211B0000CD1A000096
:101A1400A5190000DB1A0000FB1A0000FB1A0000E5
:101A2400FB1A0000FB1A0000FB1A0000FB1A00005E
:101A3400FB1A0000FB1A0000FB1A000008460136DE
:101A4400A5E7582900F0EB80A1F16302D7B2172F64
:101A5400A6D8172AA4D801A757F822F0C91C000059
:101A6400471B0000A5190000A5190000A5190000D6
:101A7400271B0000471B0000A5190000A519000042
:101A8400271B0000A5190000A5190000A5190000D6
:101A9400FD1B0000A5190000A51900009D1C0000F5
:101AA400A5190000471B0000A5190000A519000096
:101AB400FD1B0000A5190000271B0000252001992B
:101AC400D04709F1010955E7029A4FF0000802F0E6
:101AD400FE020292B3E7002C0DDAB8F1000F0DDA22
:101AE400029A002A00F042810A2224EAE47402FBEA
:101AF4000414303CA3E7B8F1000FF5DB0A2202FB23
:101B04000812A2F130089AE7B8F1000F55F8042B37
:101B140080F22E81002A80F22D8154420222029208
:101B24008DE7682903D1682B06D1482387E76C2900
:101B340002D16C2B00F02081002B7FF431AF0B46D7
:101B44007DE77A2B06D1752955F8046B14D14FF033
:101B5400000B0CE06C2BF6D04C2BF4D1073525F0A0
:101B64000703752903F10805D3E9006B06D1202882
:101B74003BD1844F013C09E04FEAE67BBBF1000F07
:101B8400F5DA7642804F6BEB4B0B013C0DF12D03E4
:101B9400059300230493304659460A220023FEF796
:101BA400CFFA049B8E46591E04910599B4463032EF
:101BB40001F8012D5A46BCF10A0F72F100020646E3
:101BC400F3460591E7D2C3F1010B30330DEB030665
:101BD400B8F1000FA6F104066DDA029BD9077CD494
:101BE400A8EB0B03A4EB0B0413E02B280ABF674FED
:101BF400674F04F1FF34C9E770290FD155F8042B5E
:101C04000023FAB96FF004034FF0050B614E053C55
:101C14005F4F029A92076FD4A04665E078216C2B3F
:101C240003D1002355F8042B08E04C2BF9D10735D8
:101C340025F007031D465B6855F8082B232825D19A
:101C4400880621D5544F023C002601F06001A1F121
:101C5400390B0DF12D0E02F00F01092988BF5944EB
:101C640030310EF8011D102A4FEA121141EA0371B6
:101C74004FEA131073F1000306F1FF3C08D2C6F1DA
:101C8400010B06F13003A1E7444FDCE7404FDBE7EB
:101C940066460A460346DEE755F8046B304606F00E
:101CA4007FFDB8F1000F834602DB4045A8BFC34661
:101CB4004FF00008364FA8EB0B03002B92DDA4EB8A
:101CC4000804A6E755F8043B4FF0010B8DF81830D3
:101CD400013C4FF0FF3306AE9AE7A046EBE70293D0
:101CE40020200199D047029BB8F10108F7D524EAD6
:101CF400E472013C9144A41AB84606E004930292AB
:101D04000199D047029A049B9046424612F8010B6F
:101D14000028F3D11A46013A15D5002BACBFC7EB06
:101D240003077F425B46013B15D5BBF1000FA8BFFB
:101D34005F4426464F44013E14D5002CA8BF3F19EA
:101D440007EB080916E60493029230200199D04764
:101D5400049B029ADFE70293019916F8010BD0471E
:101D6400029BE0E701992020D047E4E70122D6E670
:101D7400904664E6144662E64C2360E648460DB09D
:101D8400BDE8F08F55A70000DBA10000DDA1000035
:101D9400429C0000E5A10000DFA10000E2A10000D8
:101DA40008B54FF02002EFF3118382F31288BFF3DA
:101DB4006F8F01F0EFFA034806F08FF800F0FEFE93
:101DC400FCE700BFEBA100004FF02002EFF311830A
:101DD40082F31288BFF36F8F0121044AC2F84015C1
:101DE40083F31188BFF36F8F002070470090035076
:101DF40020B1034B800143F001031847704700BF33
:101E04003098000002F026BC70B5114B0D461C68DA
:101E1400DCB1104B196800238B4202DB6FF0010028
:101E240070BD224612F8106B864202D0144601336C
:101E3400F2E7E06810B96FF01200F1E707F0B0F9CB
:101E44000028F8D000202C60EAE76FF00C00E7E7E8
:101E5400F4C400206098000070B588B005460C46B4
:101E6400C0B269461646FFF7CFFF00281BDB009877
:101E7400C8B143682268029383680195CDE90336AB
:101E84000023CDE906230593C56806F050F96DB12A
:101E94002846084901AA06F04BFE079808B9059B95
:101EA400236008B070BD6FF01500FAE76FF0120000
:101EB400F7E700BFD1810000014804F08DB800BFEE
:101EC4000499000038B5044618B90F4B0F485B68F5
:101ED40098476168B1F5683F0FD0B1F5680F0CD031
:101EE4000B4DA94209D011F4686107D02146094875
:101EF40007F089F900232360656038BD1422206847
:101F040006F087FCF8E700BFB8C5002018A200005F
:101F14002C5F5CA988E1002008B500B34368B3F5E1
:101F2400683F0CD101220368D3E8EF1F002903D1D5
:101F3400C3E8E02F0028F7D10DD1002008BD094ADD
:101F440093420AD000684FF0FF324FF0FF3303F0A2
:101F540053FA0028F1D00448F0E70448EEE76FF4A0
:101F6400E040EBE72C5F5CA9E98FFFFFEA8FFFFFFE
:101F740008B5B8B14368B3F5683F0CD100220368D3
:101F8400D3E8EF1F012903D1C3E8E02F0028F7D1DC
:101F94000BD1002008BD074A934208D0006803F023
:101FA400A5FAF6E76FF4E040F4E70348F2E70348E4
:101FB400F0E700BF2C5F5CA9E98FFFFFEA8FFFFF0A
:101FC40010B5044618B91D4B1D485B6898476368F3
:101FD400B3F5683F2FD0B3F5680F2CD0194A93425C
:101FE40019D1236803BB4FF0FF324FF0FF33214672
:101FF400154803F047F908B923681BB90F4B134878
:102004005B68984714220021206806F002FC4FF414
:102014006863636008E0B3F5683F0DD83A2B03D0DA
:1020240040F6BA629342DED1206807F031F9636862
:1020340043F03A03636010BD054AF3E7B8C50020D6
:1020440018A200002C5F5CA988E100203EA20000D9
:102054003A00003A08B5064940231422054807F01F
:10206400C4F8BDE808400449044804F027B800BF98
:1020740088DC002088E100200C99000020990000F1
:10208400F7B5254E306883685B6C03B198473068B8
:1020940083685B6B002B32D1204C214D3068836800
:1020A4009B69002B2ED001220DF1070198470128CE
:1020B40028D1236843B92B6833B369681A688B4203
:1020C4002A6000D16A602360164A9DF807001188CF
:1020D400B1F5007F04D223684F1C0B44178018729B
:1020E4000A28DBD1002023681188186059600E4942
:1020F4004D6875B9C1E9003310802060CDE7984779
:102104000028C9D103B0F0BD4521084806F002F803
:10211400F8E72B604B60EFE7CCE50020A4E100205A
:10212400B4E10020D4E80020ACE100206BA2000060
:1021340010B5044B044618688368E1B25B6898479D
:10214400204610BDCCE500202DE9F041054690461F
:1021540008464FF02003EFF3118783F31288BFF38F
:102164006F8F1C490B684BB11B4C62689A4205D0B7
:1021740000221A60626872B9C4E90033174A13680E
:1021840063B987F31188BFF36F8F18460B60C8F8E3
:102194000030BDE8F08113606360EFE756681C68A7
:1021A400B342146008BF546087F31188BFF36F8F84
:1021B4005C680B60A042D8BF00F1FF3403F1080152
:1021C4002246284606F01AFB0023601C2B550123E7
:1021D400DDE700BFA8E10020B4E10020ACE100206D
:1021E40037B500251B4B1C4AC3E900551B4B1C4C3F
:1021F4001C4803F502711360C3F80852196051605A
:10220400206006F0CDFF10B32068836823B19B6C77
:1022140013B12A4614499847206883685B6B0BB155
:10222400984748B1206883689B69002BFAD0012243
:102234000DF107019847F4E700220C4B20681A803F
:1022440083689B6A03B19847002003B030BD4FF008
:10225400FF30FAE7ACE10020B4E10020BCE100204B
:10226400CCE500205095000085200000D4E8002033
:1022740040F6061300202DE9F043D9B0ADF808303C
:10228400DFF8FC90394BD9F800101B68384E08224F
:10229400A3EB06080B78487001330B7098FA98F397
:1022A4004B808B8802275BBA8B8005F000FE424688
:1022B4003146ADF80C0005F0FAFD2E4D40BA2B68FE
:1022C4001FFA88F4ADF80C00022102A85B68984755
:1022D40004F10A035BBA0DF10E01022205A8ADF860
:1022E4000E3006F08BFAD9F8001008220DF1160012
:1022F400ADF80E7006F082FABDF80E0005AB08309A
:1023040080B242463146ADF80E00184406F076FA23
:10231400BDF80E303A46E01880B205ABADF80E00B9
:1023240003A9184406F06AFABDF80E3004AA3B4427
:102334009BB2ADF80E300093BD2105AB28A8FFF782
:10234400CFF804992B68ADF80E1028A85B6889B201
:1023540098472B6801215B6807489847492107483B
:1023640005F0D8FE59B0BDE8F08300BFE4E50020D5
:10237400D7E9002018E60020419C0000A9A2000033
:1023840014E60020F0B50646B3680C469A4210469F
:1023940085B01DD291421DDC02A9FEF737F9B8B908
:1023A400DDE902531D446B1ECDE90030224649216C
:1023B4000B48E3172F1B05F0ADFE3A462146304685
:1023C40005F0E0FE024640B14521064805F0A2FEB4
:1023D4006FF01504204605B0F0BD2C46FAE700BFA7
:1023E400B1A20000D0A20000F0B50C68164F85B071
:1023F40002380D46C4F580610090144B381903AAC5
:102404000131FFF7EBF80446D0B92B68039A134463
:10241400022B2B6011D93E88023B76BAB6B29E429B
:102424000BD13246B91C05F042FD30B9022E04D955
:102434002B689A1E2A60FC540124204605B0F0BD86
:102444004FF0FF34F9E700BF58EA00205BEE0020AC
:1024540007B5CDE900016946024806F0DCF803B08F
:102464005DF804FBE4E5002038B505460A4C0A2172
:10247400204606F0E2F802210848FFF7E9FF294662
:10248400204606F0B8F820460A2106F0F4F8BDE824
:102494003840FFF7EDBE00BFE4E50020F2A20000E3
:1024A400002307B5054A0093022102F18003044882
:1024B40006F0E3F803B05DF804FB00BFD7E90020A1
:1024C400E4E500202DE9F04707290446A8B040F2CE
:1024D4009480037813F0FD0640F08F804388A1F1C7
:1024E40008055BBA9BB2AB42C0F08780A64B18606C
:1024F40083885BBA8380FFF7D3FFA088012840F06C
:10250400C181E7793FB1012F7CD0082028B0BDE814
:10251400F047FFF7A9BF01469C4806F08EF8062154
:102524009B48FFF795FF0521984806F077F83C464D
:10253400DFF89482974FDFF894922146002005F04B
:102544003DF907A9C0B2FFF75FFC0546002849D151
:10255400202301460DEB0302079805F0E9FD089BD3
:102564003E6843450DD14023019318AB009329469F
:102574002846CDE90355079B029508AAFEF756F8AD
:102584000646079805F0D3FDD9F80030B34229D1A7
:1025940014217E4806F051F804217F48FFF758FFC4
:1025A40021467A4806F02BF807217C48FFF750FFB4
:1025B4000E9B40210293BDF83630794A01939DF871
:1025C400353018A800939DF8343000F043FF18A864
:1025D40006F0E6F8014618A8FFF73AFF14216B4805
:1025E40006F049F864B10521684806F035F8012180
:1025F400664806F040F8FFF73BFE28B0BDE8F087D8
:1026040001249AE7294607AB08AA04F108000696B4
:1026140000F02CFA28B3032422464921614805F02E
:1026240079FD0A21594806F008F802215E48FFF7AF
:102634000FFF2146554805F0DEFF44B903215B48EE
:10264400FFF706FF5A4B5148196805F0D8FF0A21D5
:102654004E4806F010F8FFF70BFE069805F067FDEC
:10266400CBE7079B9D42D6D14FF0FF390146C846C0
:1026740005460746179C08AAA14222D1B8F1FF3F9C
:10268400C9D0002FC7D0002105F098F806A9C0B220
:10269400FFF7BAFB04460028BDD1454EB8F1000F40
:1026A40066D106983460D0F8088005F06DF9414988
:1026B400FDF7ACFFC8B145213F4805F02BFD0124CF
:1026C400AAE7137A032B04D8DFE803F00206090C07
:1026D400106801310C32CFE7D2E90075F9E7D2F87E
:1026E4000090F6E7D2F80080F3E7C84593D3334B64
:1026F4001C60334BC3F800903268DFF8C080013AA5
:10270400D8F8001006982A44FFF73CFE0028C8F8C1
:10271400000080DB069805F04BFDB5FBF0F303FBEE
:1027240010503268C1B2DFF89890A5EB010808EBAD
:102734000203D9F800501944A94238BF00204921A6
:10274400C5B2204805F0E6FC069805F031FD0128E5
:1027540005D9069805F02CFD013807426FD1434690
:102764003A463168069805F0F8FC002855D052E73F
:10277400336843457FF450AF114A05EB08031268F0
:102784009342B9D947E700BF14E60020E4E50020EE
:10279400F5A20000E8C40020FCA2000001A3000090
:1027A40009A3000038A30000F2A2000046A3000021
:1027B400E0E50020D8E50020849D0000D4E5002059
:1027C400D0E5002018A300003DB8F39620C80020EF
:1027D400C245069888BF5FFA88FA05F0F0FC4022EB
:1027E400014618A806F015F85246394618A806F00E
:1027F40005F853463168069818AA05F0AEFC00287F
:102804007FF409AF3368574453443360A8EB0A0894
:10281400069805F0CDFC8045DAD29DB93368D9F825
:1028240000202B444344934233607FF4F5AE214BA4
:1028340006981A681146FFF7A5FDC40FECE64FF0A1
:10284400400AE5E7069805F0BAFC0822014618A8F4
:1028540005F0DFFF2A4607EB080118A805F0CEFFB4
:10286400DDF818A03168504608EB010705F0A0FC1C
:102874003946034618AA504605F06FFC00287FF439
:10288400CAAECBE700287FF440AEE379012B3FF4D6
:102894003DAE052B03D0002B7FF437AEADE6FFF73A
:1028A400E3FD4FF40050002103F06CF90120FFF721
:1028B40077FA00BFD8E5002001232DE9F341002475
:1028C4000546264FDFF8A8803B70254B254E009423
:1028D40018603B7813B902B0BDE8F081224BC4F50F
:1028E4008061C3F80086C3F80486C3F80886C3F879
:1028F4000C86C3F81086C3F81486C3F81886C3F888
:102904001C862B6801AA0131301998470028019BC5
:1029140001DC002BDDD004442BB940F201439C427E
:10292400D7D10024D5E73378062B09D17378092B46
:102934000BD1002300936946A01EFFF755FD04E068
:10294400042B02D17378142BF5D00128E9D1009916
:1029540006480239FFF7B6FDE3E700BF57EA002057
:1029640018E6002059EE0020008001505AEA0020A9
:102974003546526E73B504460D4605F0D1FE002867
:1029840068D0354B6946009305232046019305F032
:102994009DFD60B12946204605F079FD38B100233C
:1029A4002B72204605F0C3FE012002B070BD204604
:1029B40005F0B9FE78B1294B6946009304232046FB
:1029C400019305F083FD30B12946204605F07BFDD7
:1029D40008B10123E4E7204605F0A5FE78B1204BB9
:1029E4006946009303232046019305F06FFD30B13F
:1029F4002946204605F04BFD08B10223D0E72046C6
:102A040005F091FE78B10326164B694620460093E3
:102A1400019605F05BFD30B12946204605F037FDEF
:102A240008B12E72BDE7204605F07DFE78B10E4B4D
:102A34006946009303232046019305F047FD30B116
:102A44002946204605F03FFD08B10423A8E72046A7
:102A540005F06DFE0020A8E7EA9F00004AA30000ED
:102A64004FA3000046A3000053A300002DE9F04348
:102A74004FF001099DB004AC07460E4690461D4632
:102A840002460B4620460421CDF8009005F053FE83
:102A9400204605F01EFD70B10C230521CDE901830C
:102AA4004846114B009408F13C0205F032FD60B930
:102AB400204605F029FD0022099BD868DA6090427F
:102AC40008BF1F201DB0BDE8F083204605F01AFDA5
:102AD4000028F0D00DB90020F4E7049BDB1BB342BF
:102AE40094BF2B602E60F6E77929000002464B1E46
:102AF4000846D15C51B102280FD9084B0344012088
:102B040013F8023C9840C0B270472BB11846013B01
:102B1400D15C0029F9D0EEE71846704757A30000AE
:102B2400F8B505460F46104619461646FFF7DEFF70
:102B3400012804462A68E9681CD13378172B04D984
:102B4400931C99421AD3002325E0501C814215D3CB
:102B540000248A4212D2511C03F01F03296043EA65
:102B6400471111703444B44218D1AB6801200133C9
:102B7400AB6007E0431C1344994204D208220020AE
:102B84006B69DA60F8BD08B93378E2E7831E062B77
:102B9400D9D80648C35C1833DBB2DAE72B685A1C71
:102BA4002A6014F8012D1A70DDE700BF57A3000056
:102BB400014910220A60704710ED00E072B64040EF
:102BC40080F31188BFF36F8FBFF34F8F30BF62B6AE
:102BD400BFF36F8F704700BF72B6494081F311880D
:102BE40020BF80F3118862B6704700BF2DE9F04121
:102BF40007460C4686B000294AD08B6828480093C3
:102C0400D1E90023452105F085FA63694521009344
:102C1400D4E90323234805F07DFA4521E2692248DB
:102C240005F078FA26460025DFF88880D6ED0B7A81
:102C3400FCEEE77A96ED087ACDED057AEB1C049369
:102C4400D6ED0A7AFCEEE77ACDED037AAB1C02935B
:102C5400D6ED097AFCEEE77ACDED017AFCEEC77A7F
:102C64006B1C2A460093452117EE903A40460435E2
:102C740005F050FA102D06F11006D7D14521226E29
:102C84000A4805F047FA4521A269094805F042FAC5
:102C94002146384606B0BDE8F04102F0ADB900BFA8
:102CA4005EA3000092A30000C6A3000022A40000BB
:102CB40036A40000DAA3000040B2002807DB012399
:102CC4004109034A00F01F00834042F82130704755
:102CD40000E100E0054B420953F82220012300F0F3
:102CE4001F0003FA00F01040704700BF00E100E04D
:102CF40040B2002801F10101ACBF00F16040064B75
:102D04004FEA4111C9B2ABBF00F5614000F00F00BA
:102D140080F800131954704714ED00E030BFFFF73A
:102D2400FDBF00BF144A08B5144B22F07F029A601D
:102D3400BFF34F8FBFF36F8FD3F8882022F4700254
:102D4400C3F88820D3F8882042F4A002C3F888206E
:102D54004FF04042C3F83422BFF34F8FBFF36F8F5D
:102D64000023E1EE103A02F0D1F902F08BFF00F0FB
:102D7400D5FA02F00BFA00BF0000000000ED00E0FD
:102D8400094A0A49936809685867996708494B686A
:102D940043F080534B60002383F31188BFF36F8F9C
:102DA4009368986F704700BFC0E60020589A0000EF
:102DB40000ED00E022498A6882F8BDE04FF030005F
:102DC4001044EFF3098C80E8F01F1EF0100F03D1BC
:102DD40002F17C0080EC108A202080F31288BFF37B
:102DE4006F8F184F4FF00066CA698A603E6092F98F
:102DF400BDE0506F0023536780F311881EF0100F5D
:102E040003D00023E1EE103A03E002F17C0090ECE1
:102E1400108AEFF3148323F0040383F31488BFF3BD
:102E24006F8F02F1300090E8F01F8CF3098802F1F3
:102E3400000004B505F0B0FCBDE804407047000094
:102E4400C0E6002004ED00E01EF0040F0CBFEFF319
:102E54000880EFF30980816911F8021C0229FFD070
:102E640001B505F08AFC01BD42F8203C009B0D49E8
:102E740042F81C3C019B21F0010142F8183C029BE2
:102E840042F8081C42F8143C4FF0807342F8043CAA
:102E9400002343674FF47D43203A0265C0F8BC30F9
:102EA400704700BFF97E00000023E1EE103AEFF313
:102EB400148323F0040383F31488BFF36F8FBFF3E9
:102EC4006F8F094B9860436E83F30B88104681F330
:102ED4000988002163B681F31188BFF36F8F002244
:102EE400002305F007F800BFC0E6002001B5EFF3AA
:102EF4000580A0F110004FEAC0000449014409C94B
:102F04009847BDE801400249084700009895000031
:102F1400192F0000044B9968D869884203D00349EB
:102F24004FF080520A607047C0E6002004ED00E0D4
:102F340038B5214C4521214805F0ECF8A36A9D01E0
:102F440003D545211E4805F0E5F8A36ADC0103D545
:102F540045211C4805F0DEF8174DAC6A14F48014C2
:102F640004D04521184805F0D5F80224AB6A1803AB
:102F740003D54521154805F0CDF80F4DAB6A59032B
:102F840003D54521124805F0C5F8AB6A9A0303D569
:102F94004521104805F0BEF8074DAB6ADB0303D5A5
:102FA40045210D4805F0B6F8AB6A20466FEA0343A5
:102FB4006FEA1343AB6238BD00ED00E069A4000082
:102FC40086A400009EA40000BDA40000ECA40000A0
:102FD4000FA5000039A5000058A5000070B5234CCA
:102FE40006460D462248452105F094F8A36AD90403
:102FF40003D545211F4805F08DF8A36A1A0503D5AA
:1030040045211D4805F086F8184CA36A9B0510D588
:103014001A48452105F07EF8A26BA36A180408D566
:103024004521174805F076F81EB1A36A23F400433E
:10303400A3620E4CA36A590503D54521114805F036
:1030440069F8A36ADA050BD545210F4805F062F843
:103054000020064A936A43F47F439362287070BD4C
:10306400A36A9B04F4D545210848EFE700ED00E08E
:1030740088A50000A3A50000B9A50000D1A5000003
:10308400EFA5000009A6000029A6000046A600003E
:1030940070B5264C06460D462548452105F03AF8FC
:1030A400A36AD80603D54521224805F033F8A36A5C
:1030B400190703D54521204805F02CF81B4CA36AB9
:1030C4009A0710D545211D4805F024F8626BA36AC0
:1030D4001B0608D545211A4805F01CF81EB1A36A41
:1030E40023F08003A362114CA36ADE0703D54521B4
:1030F400144805F00FF8A36A980603D54521124831
:1031040005F008F80020094B9A6AD10658BF9A6A5C
:103114009A6A920642BF5A6A22F400525A629A6A22
:1031240042F0FF029A62287070BD00BF00ED00E01B
:103134007AA6000095A60000B9A50000CDA600005F
:10314400EAA6000005A7000046A600002DE9F0410C
:103154005C4B05465F6800269CB0C7F3080486F301
:103164001188BFF36F8F02F07F43B3F17F4F07D114
:1031740002F00C03082B14D14521534804F0CAFF74
:10318400002635464FF00008E31E8DF80780092B12
:1031940000F28680DFE803F00A797D7584848484F4
:1031A400848110074CBF0D460126EBE745214748B3
:1031B400444C04F0AFFF8DF80780E36A9A0705D505
:1031C4004521434804F0A6FF002432E0E36A002BC3
:1031D40002DA45213F48F5E7E36A5B00F4D545216F
:1031E4003D4804F097FF6369AA6943F480736361FF
:1031F400BFF34F8FBFF36F8F636932F8022C23F450
:1032040080736361BFF34F8FBFF36F8F4DF602730B
:103214009A4208D0A36ADBB22BB301200DF1070157
:10322400FFF736FF2FE045212A682C4804F072FF8F
:103234002C689DF807309BB96822294602A805F03E
:10324400DDFA099B002E38D0C3F3080222B96FEAD5
:1032540053236FEA43230993204602A9FFF7C6FCD0
:103264001CB0BDE8F081A36A13F47F4F05D00120A0
:103274000DF10701FFF7B2FE05E0A36AB3F5803F45
:10328400A2D3FFF755FE0446D3E700200DF1070152
:10329400C6E700200DF10701ECE74521104891E74E
:1032A400104917F4F87F104A104808BF0A46A4F1E1
:1032B4001003452104F02EFF86E723F4FF7323F067
:1032C4000103C8E700ED00E057A7000087A700004E
:1032D400A3A70000C9A70000DCA7000000A8000005
:1032E40021A8000029A700003EA700004AA800006A
:1032F400044B5A6942F010025A615A6942F48062DE
:103304005A61704700ED00E0EFF30880EFF30981A4
:1033140001B57246FFF71AFF01BD00BF002320214B
:103324000348C2180133412B82F80013F9D17047C6
:1033340000E100E0002080F31488BFF36F8F0020C9
:1033440080F30A8880F30B88FEF75CFD00200E49A9
:103354000860BFF34F8F0D4880F3088800F03EF8F3
:10336400202080F311880A484FF40061401880F34C
:103374000988EFF314800221084380F31488BFF313
:103384006F8FFFF7CFFC000094ED00E0C023012015
:1033940080F20020BFF34F8F0549064BCA6802F440
:1033A400E0621343CB60BFF34F8F00BFFDE700BF64
:1033B40000ED00E00400FA05002318460649D1F8A0
:1033C4009020C2F30722934200DB7047C1F8983083
:1033D400C1F8A0000133F6E700ED00E010B572B6C5
:1033E400002484F31388FFF7E7FF23464FF0FF30F0
:1033F4000C4A03F120010133102B42F82100F8D1CB
:1034040000234FF0FF30074A03F160010133102B12
:1034140042F82100F8D162B6BFF34F8FBFF36F8F2C
:1034240010BD00BF00E100E0084B9B6883420BD154
:10343400EFF3058343B1064B5A6842F080525A6059
:103444005A6A22F400425A6202F0BCBBC0E6002071
:1034540000ED00E00CB410B586B009B90DF10B0015
:103464000024CDE9040109AB089A009404A9054895
:103474000393FEF775FA049B1C7006B0BDE8104078
:1034840002B0704729880000084B70B5C31A0D4676
:1034940007499B10044659434022064805F0EBF9BE
:1034A4002B4601462046BDE87040184730E6002010
:1034B400B76DDBB620950000402373B50B4C009329
:1034C400041B0B460D460A49A41061430646094AEB
:1034D400094805F0FCF9011E05DA30462B4602B016
:1034E400BDE87040184702B070BD00BF30E6002050
:1034F400B76DDBB63D8900002095000070B5002251
:10350400012104460520FFF7F3FB0F4801F0A6F95B
:103514000E4B984215D105F0E9FD26690C49304659
:1035240004F043FD00280BDB0125356424690849B8
:1035340004F11C0004F039FD002801DB0020E564DF
:1035440070BD6FF00400FBE78D3500000000AD0B8B
:103554003099000001460C23002270B54B43084803
:10356400C4184033D4E90E561844A26305F070F928
:103574002DB132462B46BDE870400248184770BD55
:1035840030E600202095000010B1012804D07047D7
:10359400034B1B6C5B0701D1FFF7DCBF704700BF17
:1035A40030E6002008B54FF02003EFF3118183F3D8
:1035B4001288BFF36F8F124A136843F00200106041
:1035C400DA0708D481F31188BFF36F8FBDE8084090
:1035D400012005F099BD4FF05023D3F80C24D3F803
:1035E4000C34D307EED5074805F032F981F311887E
:1035F400BFF36F8FBDE808400020FFF7ABBF00BFEB
:1036040080E6002070E600201FB500220123CDE9EA
:1036140002236B46084ACDF800D0CDF804D005F05B
:1036240084F9002805DB4FF480420023684601F04A
:10363400B9FF05B05DF804FB5D890000074BD3E8D2
:10364400EF2F22F00201C3E8E01F0028F7D1D307CF
:1036540002D4012005F098BD704700BF80E6002029
:103664002DE9F041012207463749D1E8EF3FC1E88F
:10367400E02F0028F9D133B9344935484B60CB6089
:103684008A6004F0A5FC7B1E012B2BD8012F07D1E7
:103694004FF05023D3F81C3403F00303022B21D042
:1036A40005F0DAFD0546F8B92A4B1B78E3B14FF073
:1036B400502302220646C3F808234FF05024DFF8B3
:1036C4009880D4F81834D4F81824D20316D503F00B
:1036D4000303022B01D0012F10D175B386F3118897
:1036E400BFF36F8FBDE8F0814FF02003EFF3118635
:1036F40083F31288BFF36F8F0125DEE7C5B130462F
:10370400FFF76AFAD4F81835DBB2012BD9D1D4F813
:103714000421002AD5D00022C4F80421D4F80421BD
:103724000222C4F818252022C8F88021A360C8E723
:103734000021212002F026FAE4E74FF05023022270
:10374400C3F80423CEE700BF2CE600201CE60020CB
:103754004CE600207CF2002000E100E030B5406837
:1037640001F01F04057BB2F5001F85B044EA45143F
:1037740005D1204601F008FB002005B030BD00252E
:10378400B2F5800FCDE9025514D1B3F1007F0CBF1F
:10379400042305238DF8083000232046194602AA85
:1037A40001F028F91C4B984233D10121204601F045
:1037B400A7FAE1E7B3F1C06F20D0B3F1007F14BFE3
:1037C400012302238DF808308368CB40D907E3D462
:1037D400B2F1A07FE0D1114A04F01F03803352F804
:1037E4002330DB07D8D40DF107052946204601F024
:1037F40033FA0B4B984203D00395CDE70323E1E75B
:10380400284601F077FA044B9842F5D06FF00B008C
:10381400B3E76FF01500B0E70000AD0B002584504E
:103824000400AD0B10B501F055FA044668B901F077
:1038340029FA084B98420AD12146074801F006FAB2
:10384400224605210D20FFF753FA002010BD6FF02A
:103854000400FBE70000AD0B61380000430970B5BC
:1038640007D10B4B596821B101250C68094E8540DD
:1038740001B970BD8A682A4002D030464B68984727
:103884001CB1236821461C46F2E72346FAE700BF31
:1038940084E60020389500002DE9FF41476801F0D7
:1038A4001F053B7B144645EA43150E4628460DF199
:1038B400030101F0D1F914F4403F80460BD12846AE
:1038C40001F08AFA3C4B984503D19DF8030001F0BE
:1038D4000BFA00200CE000232846194602AACDE981
:1038E400023301F087F8344B984204D06FF015008E
:1038F40004B0BDE8F081804503D19DF8030001F0D8
:10390400F3F9A30349D540F206332340B3F5837F8B
:1039140019D00CD8062B17D004D8ABB1022BE5D1A3
:10392400042311E0B3F5807FE0D101230CE040F2E1
:103934000222934226D0B3F5407F25D0B3F5007F11
:10394400D4D1022300E007238DF8043084F48033BB
:10395400C3F30043E0068DF805304CBF0323C4F3E2
:10396400401321038DF8063010D501237A68B34043
:1039740093600022284601A901F0E8F80E4B984212
:10398400A7D0B3E70523DFE70323DDE7620341BFE5
:1039940001237A68B340D360EBE7E3064FF00003FA
:1039A4004CBF0324C4F340141A46284601A98DF8D9
:1039B400044001F01FF8E1E70000AD0BF8B54568DD
:1039C4000646E86805F0ECFB78B9EB6845211A680F
:1039D4001C4804F09FFB6FF012052B464921326806
:1039E400194804F097FB2846F8BD2C7D6B8A14F027
:1039F400030416BF4FF4D0124FF4B0126C68E86899
:103A0400297C13430127D0F810C0DA07DCF80050F2
:103A140048BF83F4402323F480128F40DB07D0F89F
:103A240008E04CBF3D43BD43CCF80050DEF8003005
:103A3400984705460028D0D1002CCED0204605F06A
:103A440010FDCAE793A80000B0A80000024B0B6069
:103A540001231360704700BF94E6002000487047BC
:103A6400D899000070B50D461946284616461C46DE
:103A740005F016F840B9084823462A46452104F0C3
:103A840049FB6FF0150070BD24B12246294630462B
:103A940004F0B4FE0020F6E7E5A8000010B501220A
:103AA4000648114605F0FBFB05F076FB044C20604C
:103AB40005F06FFB6060002010BD00BF9CE6002095
:103AC40094E60020F8B50E46144605F062FB214644
:103AD4000546304604F0E4FF374650B3B6FBF5F331
:103AE40005FB136323B9B4FBF5F305FB134343B19F
:103AF400234632464521114804F00CFB6FF01500B3
:103B040002E0A54201D90020F8BD4FF0FF324FF08A
:103B1400FF330B4801F046FD05F03BFB05463846F4
:103B240001F03CFA641B2F44F9D1054801F01AFD59
:103B3400E9E72346324645210248DDE707A90000AC
:103B44009CE60020E5A80000F8B50E46194630466C
:103B540017461C4604F0A4FF40B9234632464521CB
:103B6400164804F0D7FA6FF01500F8BD46EA0405CC
:103B740015F0030504D02346324645211048F0E7EA
:103B8400A4B14FF0FF324FF0FF330E4801F00AFDAD
:103B940024F00304AC4206EB050009D10A4AD2F82A
:103BA4000034DB07FBD5074801F0DCFC0020DCE730
:103BB400795901F011FA0435ECE700BFE5A80000DB
:103BC4002BA900009CE6002000900350F0B54B792F
:103BD400012B26D0032B21D110258B79032B1DD14A
:103BE400CE790EB1012E19D10A7912B1022A15D15A
:103BF4000E220B684468B3F5164F276867D02DD89A
:103C0400B3F5165F66D016D8B3F5966F64D00AD8AC
:103C1400B3F5967F63D0B3F5167F63D06FF085005C
:103C240054E00025D9E7B3F5166F5ED0B3F5965F7F
:103C3400F4D1384B3CE0B3F5E14F59D007D8B3F594
:103C4400615F57D0B3F5964FE8D1334B30E047F678
:103C54001224A342E2D14FF4000329E0B3F5613FFB
:103C64004AD013D8B3F5963F49D009D84DF6C024AD
:103C7400A34246D0B3F5614FD0D14FF46B0317E0A4
:103C8400B3F5E13FCAD14FF0EB7311E0B3F5612F07
:103C94003AD008D8214CA34239D0B3F5E12FBDD195
:103CA4004FF0E86304E01E4CA342B7D14FF08053B9
:103CB4000469C7F82435436835431B682A43C3F8AD
:103CC4006C25231D03C983E803000020F0BD4FF4D5
:103CD4001D03EDE7134BEBE74FF49E23E8E74FF4A6
:103CE400A033E5E74FF41C33E2E74FF41D23DFE78D
:103CF4000D4BDDE70D4BDBE74FF06C73D8E70C4B56
:103D0400D6E74FF46503D3E74FF07063D0E74FF085
:103D14008063CDE700B0130000A04E0090D00300F4
:103D240040420F000050270000C0750000F03A0028
:103D340000903A012DE9F743804600220121082032
:103D4400FEF7D6FF0820FEF7B7FF0021D8F804706D
:103D5400D8F810603C6801AAC4F80015C6F80080C1
:103D6400D7F80C90484605F088F8051E1EDB019B29
:103D7400D9F800201979186800F0D4FA051E15DB6B
:103D84004046311DFFF722FF054678B97B68990745
:103D94001DD506F11C0000F0A5FD214B984209D069
:103DA4004521204804F0B6F96FF00405284603B015
:103DB400BDE8F083337F43F00043C4F8A031C4F876
:103DC4008C300123327F9340174AC2F8043508230C
:103DD400C4F800353B7A53B9C4F81031D4F8103123
:103DE400B369C4F834350123C4F8383523607B68DB
:103DF4009A075CBF4FF48073C4F804337B68DB0616
:103E040044BF4FF48003C4F804337369C4F84435E1
:103E14000023C4F848350123A360E360C6E700BF6C
:103E24000000AD0B6FA9000000700150F8B5044606
:103E34000D46076905F010FAB0B9214B1B789BB108
:103E44006426606804F06FFF00BB012005F0F2F8FF
:103E5400013EF6D10021212001F094FEF0E781F328
:103E64001188BFF36F8FF5E74FF02003EFF3118153
:103E740083F31288BFF36F8F60680E4604F053FF1C
:103E840090B981F31188BFF36F8FEDE74FF02003F2
:103E9400EFF3118183F31288BFF36F8F60680E46CE
:103EA40004F041FF0028DAD07B6901221D7020460E
:103EB400796904F078FE86F31188BFF36F8FF8BD3B
:103EC4007CF200200123834070B5DC430B4AD2E826
:103ED400EF1F01EA0405C2E8E65F002EF7D14FF4B4
:103EE400803282400648C0F80823BFF35F8FBFF3D7
:103EF4006F8F0B4214BF0120002070BDB0E600207C
:103F040000500150F8B51B49044622F07F4508686B
:103F1400C1E90023A5F50013101AB3F5400F0FD320
:103F240001F096FFA30003F1502303F58033D3F887
:103F3400402595421DD14FF40002C3F8402512E0FC
:103F44000D4B1B681A0A1B065E190C4B42F1000745
:103F5400C3E9006701F07CFF094A04F5A87352F82D
:103F640023309D4205D14FF48033054AA340C2F863
:103F74004433F8BD88C60020B4E6002090C6002073
:103F840000500150D9B101230D4A8340D2E8EFCF4C
:103F94004CEA030CC2E8E1CF0029F7D14FF4803397
:103FA400084A8340C2F80433074BD3E8AF3FC34009
:103FB400DB0742BF4FF40012044BC3F800217047E3
:103FC400B0E6002000500150ACE6002000E100E023
:103FD4000D4B1868010A0006BFF35F8F0B4BD3F833
:103FE4000435181841F10001B3F5801F0AD2084BBB
:103FF400D3E90023904271EB030303D210F18070E4
:1040040041F10001704700BFB4E6002000500150A8
:1040140090C600202DE9F74F14461D460746FFF7CA
:1040240051FF0090FFF7D4FFA04271EB05037AD251
:10403400444B201A65EB0101984271F100017DD2D5
:10404400414B03EB0713D3E902239D4208BF94427B
:1040540054D04FF4803324F07F4B5E4600214FEA66
:10406400870907F1500809F150294FEA8808BB4035
:1040740009F580391FFA88F808F150280193D9F816
:104084004005324B08F58038D3F804A5A0EB0A00AC
:1040940020F07F402AF07F420128C9F8402504D14E
:1040A400132005F0DEF90021284B0AF1020CA6EBDF
:1040B4000C0020F07F40B0F5000F88BF6646C8F8BA
:1040C4000010019AD8F8000026F07F40C3F844237A
:1040D400C9F84005D3F80405824506D0301A0238E1
:1040E40020F07F40B0F5000F1BD8A6EB0B0626F09E
:1040F4007F46361945F1000334461D4612490C9893
:1041040001EB0712C2E9024500243B01C8500D9B94
:10411400536038460099FFF735FF204603B0BDE8E9
:10412400F08F3046B0E70123094ABB40D2E8EF0FD5
:104134001843C2E8E10F0029E0D0F7E76FF0150457
:10414400E7E700BF0100000178C6002000500150DD
:10415400ACE6002073B500244FF0FF304FF0FF3180
:10416400164D174BC5F80845C3E902014FF48033D7
:1041740002264FF40012C5F80433124B0121C5F88E
:1041840004631520C3F880212246FEF7B1FD1520F3
:10419400FEF792FD01230C4AAB602B6013600B4BBE
:1041A4000B4A0093204600230194FFF733FF304667
:1041B400FFF756FA204602B070BD00BF0050015010
:1041C40078C6002000E100E0B0E60020093F0000CE
:1041D400FFFF7F002DE9F743314BD3F80423920707
:1041E4000BD5D3F8042142B10022C3F804212D4A8F
:1041F400D3F804311368013313604FF02003EFF355
:10420400118283F31288BFF36F8F254CD4F80433E3
:10421400DB0325D5244BD3E8EF1F21F00100C3E8CD
:10422400E50F002DF7D111B9D4F84031C3B1002501
:10423400C4F84051D4F8403182F31188BFF36F8F32
:10424400FFF7C6FE4FF02003EFF3118283F31288C9
:10425400BFF36F8F154BD3E90267B042B94106D261
:1042640082F31188BFF36F8F03B0BDE8F0834FF082
:10427400FF38D3E900104FF0FF391D60C3E902890C
:104284004FF48033C4F8483382F31188BFF36F8F3F
:104294000029E9D0009032463B4628468847E3E7A8
:1042A40000500150B4E60020ACE6002078C600209F
:1042B400431C13B520D0012820DDB0F5000F1FDA10
:1042C400441EFFF785FE0F4BD3E90013421AB2F5E3
:1042D400000F28BF00240C4801322244824228BF28
:1042E40002460020521809490190009143F100034D
:1042F400FFF790FE02B010BD0348E1E70024E0E7B9
:10430400014CDEE788C60020FFFF7F00093F000064
:1043140008B5FFF75DFE024B1B68C01A08BD00BF5D
:1043240088C600202DE9F04101273F4E00EB8101B2
:10433400814202D10020BDE8F081056805F07F03C9
:10434400C5F343247F2B4FEA154508BF4FF0FF33D5
:10435400192D66D8DFE805F00D161B1E212D1E65EC
:104364006565653151656565656565656565545C5B
:104374005F62C2F80C3503F01F0507FA05F5B56056
:10438400012502E0C2F814350025AC461CE0C2F851
:104394000835F0E7C2F81035F6E70025C2F808350D
:1043A40003F01F0C07FA0CFCC6F80CC04FF0010C0C
:1043B4000AE0C2F80C350125F2E7C2F80835002CF2
:1043C400E2D100250624AC4650F804EB24020EF496
:1043D4000058B8F1000F1CBF4FF0000C0125CEF3BC
:1043E400C11E44EA8E0403F01F0344EA0C0444EAA9
:1043F4004504803346F823409AE7C2F80C35DEE7DB
:10440400C2F860350568C5F38035002DD3D0B2E716
:10441400C2F86435F6E7C2F86835F3E7C2F86C35DC
:10442400F0E76FF0850086E70025845040EA010339
:10443400C3F30E0330B58BB940F21515094CC90B03
:10444400C0F3C730994201D1002030BDC218D2B2A6
:1044540002F5C07244F822500133F3E76FF01500FF
:10446400F3E700BF003000500348452108B503F0CE
:1044740051FE0020FEF78EFFADA9000030B5816823
:1044840085B0103921F00704054603F098FE102288
:104494000146684604F0BDF910226846064904F056
:1044A400ADF910236A462146284603F056FE00382B
:1044B40018BF012005B030BDFC9B000030B50D468F
:1044C400816887B0102302AA1039044603F030FE35
:1044D400002802DA012007B030BD1022204602A9CC
:1044E40004F000FD00283AD110221E4902A804F06D
:1044F4005EF900280CBF012302232B70204604F030
:10450400DDFC012301460DF10702204603F010FEF5
:104514000028DFDB9DF80730204603F00F021B095B
:104524006A702B7101220DF1070104F0DBFC10B954
:104534006B78042B03D901236B7000232B71A268C1
:104544002046183A22F00702083AA91C04F0DDFCC0
:104554000028BFD12046E91C04F030FDBBE703234B
:10456400CBE700BFFC9B00007FB5054669460320EE
:1045740004F02AFD044610B1FF2004B070BD0920E8
:1045840002A904F021FD012836D12A4649212848F0
:1045940003F0C0FD274B8DF80C40029300229DF8D8
:1045A40000509DF80860244C2946207804F08CFCC7
:1045B40048B33146607804F087FC20B3A378042B19
:1045C40003D09DF8031099421DD1E378042B03D046
:1045D4009DF80B10994216D12379042B0FD16379DE
:1045E400022B1BD1154A1648492103F093FD60792B
:1045F400831E022BC1D9BFE70028CFD0BCE79DF8AA
:1046040002109942EBD00132032A04F10604CBD103
:104614000C48492103F07EFD0120AEE7032B05D0B1
:10462400094A0A49042B08BF0A46DCE7084ADAE7C4
:10463400F2A900000301030365AA0000D4A9000045
:104644003DAA000050AA0000D9A90000EBA900006F
:10465400CFA9000008B54FF47F03D3F83021D3F875
:104664003431BFF34F8F092A01BF4FF0502300228A
:10467400C3F81421C3F8182104F0CBFC28B101229B
:10468400524BC3F8382AC3F878254FF47F03D3F884
:104694003021D3F83431BFF34F8F092A05D1012BD0
:1046A4001EBF0122494BC3F8782504F0B2FC18B1AF
:1046B4000E22474BC3F8E42E4FF47F03D3F8302186
:1046C400D3F83431BFF34F8F092A06D100223F4B70
:1046D400C3F80C270122C3F810270022D30003F5E6
:1046E4007F03D3F80013BFF34F8F013108D0D3F801
:1046F40000130132D3F80433B2F5807F0B60EDD19F
:10470400344BDA69BFF34F8FD10745D5BFF34F8FD1
:10471400314BD3F80024012AFBD1C3F80425D3F884
:104724000024012AFBD12B4BDA69BFF34F8FD20748
:104734000AD5DA6922F00102DA61BFF34F8F264A03
:10474400D2F80034012BFBD1224A136ABFF34F8FF6
:1047540001330CD1136A23F0FF0343F020031362E7
:10476400BFF34F8F1C4AD2F80034012BFBD1002237
:10477400194BC3F80425D3F80024012AFBD1BFF355
:104784004F8F1649164BCA6802F4E0621343CB609C
:10479400BFF34F8F00BFFDE71B6ABFF34F8F013399
:1047A400B4D00E4BD3F88C2042F44062C3F88C2072
:1047B400D3F8882042F47002C3F88820BFF34F8FE7
:1047C400BFF36F8F074B084A1A6008BD00400050C2
:1047D40000A003500080FF000090035000ED00E0B3
:1047E4000400FA054CC500200090D00370B50125E3
:1047F4000268B2FA82F3C3F11F03DBB205FA03F4D1
:1048040022EA0404D0E8EF6F964204D1C0E8EC4FEA
:10481400BCF1000FF6D1EBD101480B7070BD00BFA5
:104824000000AD0B10B50368CB40DB0710D40123A7
:104834008B40026843EA0201D0E8EF4F944204D16E
:10484400C0E8EC1FBCF1000FF6D1F2D1014810BD55
:104854000148FCE70000AD0B0400AD0B044B1A79D2
:1048640022B9012218601A71024870470248704741
:10487400B8E600200000AD0B0C00AD0B4FF0502348
:1048840010B5D3F8002152B10020C3F80001D3F8C9
:1048940000210122C3F80823114B1B6898474FF0ED
:1048A4005023D3F804218AB10022C3F80421D3F899
:1048B4000421D3F81824D3F8181402F00302012AAF
:1048C4004FF0020103D1C3F818159A6010BDC3F864
:1048D4000813034B0120BDE810401B68184700BFB4
:1048E400B8E6002001460148FFF780BF50C500200C
:1048F400064A00F01F0002EB8002D2F8003223F4D3
:10490400403343EA0143C2F8003270470025845023
:10491400034B083033F81000C0F34010704700BF59
:1049240054C5002070B50D4C00F1080334F8133061
:104934000546DA050E4607D5C3F3432304EBC30249
:10494400526854F833309847A3682BB1314628464F
:10495400E268BDE87040184770BD00BF54C5002030
:1049640010B4134A083032F81030D9051CD5C3F3FB
:10497400432123F4F85322F81030002002F10E04EE
:1049840034F8023F13F4807F03D0C3F343239942E6
:104994000AD001302028F3D1002342F831300548F1
:1049A4005DF8044BFFF73EBF5DF8044B704700BF52
:1049B40054C50020A8C5002038B50246FFF7A8FF5B
:1049C4000B4C02F1080560B1002134F815305B0B83
:1049D4009B0003F1A04303F55043C3F81015C3F83B
:1049E40010151046FFF7BCFF002324F8153038BD1E
:1049F40054C500202DE9F34104461D4609B34E4F2A
:104A040000F1080837F81860B30706D5FFF780FFF0
:104A140018B14A4802B0BDE8F081494804F01F03C8
:104A240000EB8300D0F80032097823F00F0326F05E
:104A3400020643EA810346F00106C0F8003227F873
:104A440018609AB13C4E04F1080736F81710137831
:104A540011F0020F50680CD00028DAD136F8172074
:104A640022F01C0242EA830326F81730D5BB3548EE
:104A7400D0E721F02001C904C90C26F8171000283A
:104A8400ECD0032BC5D8526892F800C0624692005D
:104A940002F1A04202F5504223B9C2F81035C2F81F
:104AA4001035DBE7D2F8100541EA4C3120F0030061
:104AB400C2F81005D2F8100541F0200120F4473067
:104AC40020F44070C2F810052002D2F810E500F47A
:104AD400F85040EA034040EA0E00C2F8100526F8F8
:104AE4001710BBE72046D5E90067FFF739FF002E12
:104AF400BDD0114DD5E90023964201D19F4218D073
:104B040011480DF10701FFF771FE0E4B984281D158
:104B14009DF8072005EBC20308345F6035F81430B4
:104B240045F8326043EA422343F4807325F8143095
:104B34009DE70022EEE700BF54C500200400AD0B42
:104B4400002584500000AD0BA8C50020F8B504462C
:104B540079B33A4E00F1080736F81750AB0704D47E
:104B6400FFF7D6FE08B13648F8BD15F01C0F4B7898
:104B740022D104F01F00DFF8CCC000F1800E5CF8F5
:104B84002EC091F802E05B002CF4E16C097843EA52
:104B94008E032CF0070C43EA0C0343EA0123294952
:104BA40043F00103803045F0030541F8203026F836
:104BB400175022B92448D7E7012BDAD1D3E71F4E87
:104BC40004F1080736F817008307CCD592F800C023
:104BD4000023614620F02000890001F1A041C004B7
:104BE40001F55041C00CC1F8103526F81700C1F882
:104BF40010355578002DDDD0D1F81035927823F496
:104C0400981323F4F853C1F81035D1F810E52302B2
:104C140003F4F8532D0443EA0E0305F4403512055A
:104C24002B4302F4801240EA4C30134340F020003E
:104C3400C1F8103526F81700BCE700BF54C50020A2
:104C44000400AD0B002584500000AD0B014BC3E9FB
:104C54000201704754C5002008B50246FFF758FE0C
:104C640038B1054B083233F8123004485B0B0B7033
:104C740008BD0348FCE700BF54C500200000AD0B8D
:104C84000400AD0B38B50F4C94F85850BDB9402210
:104C9400294604F1100003F0BCFD0D20FEF70CF8CA
:104CA400094B0A48C3F87C51D3F87C214FF00042E9
:104CB400C3F80423012384F85830636538BD0448DD
:104CC400FCE700BF54C5002000D000500000AD0B2D
:104CD4000500AD0B034B93F85800003818BF0120B2
:104CE400704700BF54C5002001460148FFF79ABD34
:104CF400A4C5002001460148FFF778BDA4C50020E3
:104D0400024610B5FFF704FE1C4B02F1080433F809
:104D14001430E0B113F0020419D15B0B9A0002F1D4
:104D2400A04000F5514002F1A042046002F5504257
:104D34000068D2F8100540F00100C2F8100529B14E
:104D4400012202FA03F30E4AC2F8043310BDC3F37E
:104D54008203042B0ED0052B0ED00A4B196902F0E6
:104D64001F03D94001F0010102311046BDE8104093
:104D7400FFF7BEBD0321F8E70221F6E754C5002082
:104D840000D000500025845008B50246FFF7C0FD4E
:104D9400C0B10F4B02F1080133F81130990711D457
:104DA40001225B0B9A400B499B0003F1A043C1F81D
:104DB400082303F55043D3F8102522F00302C3F867
:104DC400102508BD0021BDE808401046FFF790BD3E
:104DD40054C5002000D0005010B50C4B00F108025F
:104DE40033F812300446DB070DD5FFF7CDFF20461C
:104DF400FFF7E2FD0222064B04F01F04803405484D
:104E040043F8242010BD0448FCE700BF54C500202B
:104E1400002584500000AD0B0400AD0B2DE9F04FCC
:104E2400002501222C464D4B4D484E4985B01E6845
:104E340036B1D0F8046316421EBF1C601E681543C9
:104E440004338B424FEA4202F1D1454FD7F87C310B
:104E540093B1454E336A039333624FF0010A0DF167
:104E64000C09039870B9C7F87C01D7F87C31336A10
:104E740003933362002BF0D10124002D56D105B0E9
:104E8400BDE8F08F90FAA0FBBBFA8BFB374A0BF11D
:104E940008034FEADB0C32F813100BF0070419F87F
:104EA4000C300AFA04F423EA040309F80C3006EB84
:104EB4008B03D3F80042C1F38202C9069046C4F3BF
:104EC400014418D5114658460193FFF72BFD019B69
:104ED400E4B2D3F80032C3F301439C4207D100216A
:104EE4005846FFF705FD21465846FFF701FD0AFA2B
:104EF4000BF03062B5E7022C0CD103215846FFF7C2
:104F0400F7FC08F00503012BF1D141465846FFF7A1
:104F140009FDECE7022158460192FFF7E9FC019AEA
:104F2400032AF2D0032CE2D18A42EDE795FAA5F3E5
:104F3400B3FA83F304FA03F29B0003F1A04303F5ED
:104F44005043D3F81005D3F81015C0F30420C1F36F
:104F5400014125EA0205FFF7E5FC8EE700D1005088
:104F640000D0005020D100500025845054C50020AA
:104F74000022034BC3F88425C3F80425704700BFFF
:104F840000900350044AD2F80834DB07FBD50160D3
:104F9400BFF35F8F704700BF0090035008B5C0F3A4
:104FA4000B0383B90222094BC3F88425C3F80425F3
:104FB4004FF0FF320260D3F80024D207FBD5FFF78D
:104FC400D7FF034808BD0348FCE700BF0090035027
:104FD4000000AD0B0A00AD0B012208B5054BC3F868
:104FE4008425C3F80425FFF7CDFFBDE80840FFF78B
:104FF400BFBF00BF00900350F7B505460E464FF003
:105004002003EFF3118783F31288BFF36F8F00F04F
:10501400D3FD0022042D98BF184B044694BF53F8C7
:105024002530174B009245212A46164803F072F8A2
:105034003EB1F369C3F308031BB14521124803F0E1
:1050440069F834B1204604F00DF9034608B102783A
:1050540002B90E4B224645210D4803F05BF8314658
:105064002846FFF701FA87F31188BFF36F8F2046B4
:1050740003B0BDE8F040FEF7D7B900BF5C9A00006A
:1050840077AA00008DAA0000BAAA000085AA000031
:10509400E0AA00000F4B70B553F82040013053F8DC
:1050A4002060A64200D870BDD4E900352846984750
:1050B4006DB138B10028B8BF4042FF28A8BFFF2017
:1050C400EB681870EA68537843F0010353700834AE
:1050D400E7E700BF709A0000012208B5094B0320DE
:1050E4001A70FFF7D7FF00F029FF0420FFF7D2FF63
:1050F40000F026F9FBF7AAF9034A137B23F0010316
:10510400137308BD7CF2002058C7002008B503487B
:10511400034A0021121A04F04EF808BD78C6002094
:1051240080F20020C02370B5134E012203FB0066F9
:10513400002386B0CDE904230F220193CDE9023286
:105144001C234FF4A0720D4D0D4903FB005504467A
:1051540002FB00110B4B3046009500F0C1F8737B45
:105164002C7523F004037373074B013403EBC4233E
:10517400EE606B6006B070BD98C60020C0E60020EB
:1051840080FA00206D92000080F2002080B500209B
:10519400B6B0FFF77FFF2B4B03F5006282F308885C
:1051A40083F30A880024E023274D284E85F8223013
:1051B400EC772C766C76AC7685F820406B6A244FBD
:1051C40043F4E0236B6285F82340FEF791F8FDF782
:1051D400EFFC4FF0FF33AB62EB6240F20113ADF82A
:1051E400243006ABB360CDE91F44229403F0D7FF0B
:1051F4000120FFF74FFF0220164DFFF74BFF00F091
:1052040033FC154BF5610593012314494FF42052E7
:10521400CDE9034328463B46CDE90144009400F020
:105224005FF806466A7B284622F004026A7304F09B
:105234009EF82046FFF776FF3A4631462846FDF7AA
:1052440033FE00BF80F2002000ED00E0C0E6002045
:10525400DD50000058C7002047AB0000C0FB002011
:10526400002038B5054C064DAC4200D338BD20466D
:1052740003F0A5FF0028F9DB1C34F5E722C6002063
:1052840022C6002073B50C464FF02005EFF31181C0
:1052940085F31288BFF36F8F45695DB125602B6874
:1052A4004361836901338361002081F31188BFF373
:1052B4006F8F11E052EA030603D16FF00B002560F3
:1052C400F3E7CDE900230246083000F0D7FA18B915
:1052D400024B9B685B69236002B070BDC0E600208E
:1052E4002DE9FF410E9E00F1580506730426C0E91E
:1052F40016550025044646730D9EC0E9065586736F
:10530400D61D0C9A26F00706C0E919168560C573E8
:10531400C56602920B9A01EB060801920A9A009262
:105324004246FDF7A1FD054B65659B6803B11B6F04
:105334004046236704B0BDE8F08100BFC0E600200A
:105344002DE9F043294C2A4D87B02646AE4204F19C
:1053540030040FD300F058FB4FF4004640F2E73717
:10536400224CDFF89090AC4220D307B0BDE8F04364
:1053740000F05EBB54F8043C059354F8103C0493CD
:1053840054F8143C039354F8183C029354F81C3C0E
:10539400019354F8203C009354E90A2354E90C0186
:1053A400FFF79EFF54F8303C5E65CEE7636A5A1CF3
:1053B4000DD00021384623EAE373C3FB060151EA0A
:1053C400C333D4F8008004D1404600F0CDFA303421
:1053D400C9E74FF47A720023FAF7B2FE02460B468D
:1053E40008F11800494600F0B5FCF0E7A09700006A
:1053F400A0970000DF9200002DE9F3410446174610
:105404001E464FF02003EFF3118883F31288BFF395
:105414006F8FC368334A7BB180689168884219D022
:1054240057EA060318D188F31188BFF36F8F6FF022
:105434000F0002B0BDE8F081916891F90E100133BC
:10544400E36093682161A36088F31188BFF36F8FD1
:105454000020EEE72169F2E791F90E1090F90E3081
:105464006FF07E029942A8BF19469142B8BF114617
:105474008B422EDD03F004FF054622464146CDE96A
:105484000076194800F0FAF90028E1D04FF0200323
:10549400EFF3118683F31288BFF36F8FA068D0B146
:1054A400236821699C420AD04BB193F90E3099428A
:1054B400A8BF19466FF07E039942B8BF194603F09E
:1054C400DFFE40B13146084800F03CFA6FF00A00B4
:1054D400AFE70025D1E7002DF4D186F31188BFF39F
:1054E4006F8FF3E7C0E600207DF2002038B58368B3
:1054F40004466BB3194A926893422CD1C368012BBA
:1055040003D9013BC360002038BD4FF02003EFF303
:10551400118583F31288BFF36F8F0169806803F0EC
:10552400AFFE204603F033FFA06058B190F90E207F
:1055340022610022826703F01AFF2946084800F01E
:1055440001FAE0E7E06085F31188BFF36F8FDAE7D3
:105554006FF01500D8E74FF0FF30D5E7C0E6002024
:105564007DF2002038B504464FF02003EFF3118597
:1055740083F31288BFF36F8F03F009FF48B1002251
:10558400826703F0F4FE2946BDE83840044800F081
:10559400D9B9D4E902329A4218BF0133A360F2E7C1
:1055A4007DF2002013B54FF02004EFF3118184F352
:1055B4001288BFF36F8F846844B1013C846081F327
:1055C4001188BFF36F8F002002B010BD52EA0304AC
:1055D40006D181F31188BFF36F8F6FF00F00F3E7EB
:1055E400CDE900230246024800F048F9ECE700BF89
:1055F4007DF2002038B5074D2C6854B1FEF788FEC3
:10560400054B04441C6128680021BDE8384003F0C0
:1056140006BF38BDF4E60020C0E6002038B50D4DC5
:105624002B4653F8204F9C4200D004B9EC68AB6879
:1056340038B95A7BD20604D1A26912B9DA897F2A11
:1056440005D89C4202D02046FFF7D4FF2346EB61E5
:1056540038BD00BFC0E6002070B590F90D200146AA
:10566400002A437B04DA03F07F03437303F023FE31
:10567400154A4B7B104663F07F034B7350F8203F71
:10568400546A834208BF002323B9C1E9000421609E
:1056940051620CE091F90E5093F90E60B5420ED0B0
:1056A400AE420CDD5868C1E9003001605960906871
:1056B400BDE87040431A58425841FFF7AFBF9C42BF
:1056C400E3D01B68E0E700BFC0E6002070B490F9A7
:1056D4000D30427B002B29DBD30627D183692BBBFA
:1056E400134962F07F0242730A4652F8204F9442F3
:1056F40018BF23464C6A23B9C0E9002420604862DD
:105704000CE090F90E5093F90E60B5420AD0AE4207
:1057140008DD5A68C0E9003210605860002070BC8F
:10572400FFF77CBFA342E7D01B68E4E770BC704777
:10573400C0E6002008B590F90D200146002A437BFD
:1057440004DA03F07F03437303F0B5FD044B986858
:10575400431A58425841BDE80840FFF75FBF00BFF5
:10576400C0E6002070B515461C46064603F0D7FD7A
:10577400B4F1FF3F08BFB5F1FF3F08D02A462346E6
:1057840006F118000249BDE8704000F0E3BA70BDAC
:10579400DF920000F8B504460D464FF02003EFF306
:1057A400118783F31288BFF36F8F00264FF4004CE8
:1057B40040F2E73031464FF47A720023E4FB0C01E7
:1057C400FAF7BEFCB44202DD0228B8BF0220074A41
:1057D400074B1060074A98681E611560FFF70AFFBF
:1057E40087F31188BFF36F8FF8BD00BFF4E6002084
:1057F400C0E60020F0E6002038B54FF02003EFF3B8
:10580400118583F31288BFF36F8F174B174A9C6877
:1058140011688C4207D12046FFF7ECFE85F311880E
:10582400BFF36F8F38BD00211160114A1268C2B1F5
:10583400E2897F2A15D8627BD20612D10D4A94F9E7
:105844000E10126891420CDB0B4A944209D01A697B
:10585400824203DC2046FFF7FFFEDCE7121A1A61DE
:10586400DCE70022FBE700BFC0E60020ECE60020F6
:10587400F4E60020F0E6002098C6002070B50C483D
:105884000C4D86680C462E601146DDE904234FF06A
:105894002006EFF3118586F31288BFF36F8F8068BB
:1058A400FFF760FF2046BDE87040FDF769BA00BF0E
:1058B400C0E60020ECE60020F8B504464FF02003D3
:1058C400EFF3118683F31288BFF36F8F437B49B2E2
:1058D400DA0619D18569BDB903F07F03437303F078
:1058E400EAFC437B164A63F07F03437313468173D8
:1058F40053F8200F984218BF0546506A5DB9C4E9B1
:1059040000300460546211E00020A17386F3118812
:10591400BFF36F8FF8BD95F90E70B9420BD08F426B
:1059240009DD6B68C4E900531C606C600120FFF75B
:1059340075FE0120EAE7A842E1D02D68DEE700BF4A
:10594400C0E6002049B9EFF3058030B9054BDA69A8
:105954009B689A4201D0FDF713BA81F31188BFF313
:105964006F8F7047C0E6002010B54FF02002EFF3B0
:10597400118482F31288BFF36F8F427B510704D4E2
:1059840084F31188BFF36F8F10BD22F004024273B9
:10599400FFF79CFE2146BDE810400148FFF7D2BF47
:1059A4007DF2002070B50446183003F022FD4FF05C
:1059B4002003EFF3118683F31288BFF36F8F94F9FA
:1059C4000D20637B002A05DA03F07F03204663730E
:1059D40003F071FC0B4D637BA86843F01003637301
:1059E400031B58425841FFF719FE86F31188BFF391
:1059F4006F8FAB68A34203D1BDE8704003F0EFBCE6
:105A040070BD00BFC0E600204FF02003EFF311810A
:105A140083F31288BFF36F8F044B9A68D37B013BE7
:105A2400D37381F31188BFF36F8F7047C0E60020F2
:105A340010B54FF02003EFF3118483F31288BFF302
:105A44006F8F084B00209A68D37B0133D373FFF721
:105A5400E5FD84F31188BFF36F8FBDE8104003F0B8
:105A6400BEBC00BFC0E600200021044B084603F181
:105A74002002C3E90822FFF78DBE00BFC0E6002064
:105A8400F8B54FF02003EFF3118583F31288BFF3C9
:105A94006F8F19498868437B03F07F03437303F0D6
:105AA4000AFC08468B685A7B62F07F025A7350F8EE
:105AB400202F4C6A824208BF002222B9C3E90004A5
:105AC40023604B620CE093F90E6092F90E70BE42B3
:105AD4000ED0B7420CDD5168C3E900210B6053605E
